{
  "_format": "hh-sol-artifact-1",
  "contractName": "ProxyHRC20",
  "sourceName": "contracts/token/oft/extension/ProxyHRC20.sol",
  "abi": [
    {
      "inputs": [
        {
          "internalType": "address",
          "name": "_lzEndpoint",
          "type": "address"
        },
        {
          "internalType": "address",
          "name": "_proxyToken",
          "type": "address"
        },
        {
          "internalType": "address",
          "name": "_multisig",
          "type": "address"
        },
        {
          "internalType": "address",
          "name": "_bridgeManager",
          "type": "address"
        }
      ],
      "stateMutability": "nonpayable",
      "type": "constructor"
    },
    {
      "anonymous": false,
      "inputs": [
        {
          "indexed": false,
          "internalType": "uint16",
          "name": "_srcChainId",
          "type": "uint16"
        },
        {
          "indexed": false,
          "internalType": "bytes",
          "name": "_srcAddress",
          "type": "bytes"
        },
        {
          "indexed": false,
          "internalType": "uint64",
          "name": "_nonce",
          "type": "uint64"
        },
        {
          "indexed": false,
          "internalType": "bytes",
          "name": "_payload",
          "type": "bytes"
        },
        {
          "indexed": false,
          "internalType": "bytes",
          "name": "_reason",
          "type": "bytes"
        }
      ],
      "name": "MessageFailed",
      "type": "event"
    },
    {
      "anonymous": false,
      "inputs": [
        {
          "indexed": true,
          "internalType": "address",
          "name": "previousOwner",
          "type": "address"
        },
        {
          "indexed": true,
          "internalType": "address",
          "name": "newOwner",
          "type": "address"
        }
      ],
      "name": "OwnershipTransferred",
      "type": "event"
    },
    {
      "anonymous": false,
      "inputs": [
        {
          "indexed": true,
          "internalType": "uint16",
          "name": "_srcChainId",
          "type": "uint16"
        },
        {
          "indexed": false,
          "internalType": "bytes",
          "name": "_fromAddress",
          "type": "bytes"
        },
        {
          "indexed": true,
          "internalType": "address",
          "name": "_to",
          "type": "address"
        },
        {
          "indexed": false,
          "internalType": "uint256",
          "name": "_amount",
          "type": "uint256"
        }
      ],
      "name": "ReceiveFromChain",
      "type": "event"
    },
    {
      "anonymous": false,
      "inputs": [
        {
          "indexed": false,
          "internalType": "uint16",
          "name": "_srcChainId",
          "type": "uint16"
        },
        {
          "indexed": false,
          "internalType": "bytes",
          "name": "_srcAddress",
          "type": "bytes"
        },
        {
          "indexed": false,
          "internalType": "uint64",
          "name": "_nonce",
          "type": "uint64"
        },
        {
          "indexed": false,
          "internalType": "bytes32",
          "name": "_payloadHash",
          "type": "bytes32"
        }
      ],
      "name": "RetryMessageSuccess",
      "type": "event"
    },
    {
      "anonymous": false,
      "inputs": [
        {
          "indexed": true,
          "internalType": "uint16",
          "name": "_dstChainId",
          "type": "uint16"
        },
        {
          "indexed": true,
          "internalType": "address",
          "name": "_from",
          "type": "address"
        },
        {
          "indexed": true,
          "internalType": "bytes",
          "name": "_toAddress",
          "type": "bytes"
        },
        {
          "indexed": false,
          "internalType": "uint256",
          "name": "_amount",
          "type": "uint256"
        }
      ],
      "name": "SendToChain",
      "type": "event"
    },
    {
      "anonymous": false,
      "inputs": [
        {
          "indexed": false,
          "internalType": "uint16",
          "name": "_dstChainId",
          "type": "uint16"
        },
        {
          "indexed": false,
          "internalType": "uint16",
          "name": "_type",
          "type": "uint16"
        },
        {
          "indexed": false,
          "internalType": "uint256",
          "name": "_minDstGas",
          "type": "uint256"
        }
      ],
      "name": "SetMinDstGas",
      "type": "event"
    },
    {
      "anonymous": false,
      "inputs": [
        {
          "indexed": false,
          "internalType": "address",
          "name": "precrime",
          "type": "address"
        }
      ],
      "name": "SetPrecrime",
      "type": "event"
    },
    {
      "anonymous": false,
      "inputs": [
        {
          "indexed": false,
          "internalType": "uint16",
          "name": "_remoteChainId",
          "type": "uint16"
        },
        {
          "indexed": false,
          "internalType": "bytes",
          "name": "_path",
          "type": "bytes"
        }
      ],
      "name": "SetTrustedRemote",
      "type": "event"
    },
    {
      "anonymous": false,
      "inputs": [
        {
          "indexed": false,
          "internalType": "uint16",
          "name": "_remoteChainId",
          "type": "uint16"
        },
        {
          "indexed": false,
          "internalType": "bytes",
          "name": "_remoteAddress",
          "type": "bytes"
        }
      ],
      "name": "SetTrustedRemoteAddress",
      "type": "event"
    },
    {
      "anonymous": false,
      "inputs": [
        {
          "indexed": false,
          "internalType": "bool",
          "name": "_useCustomAdapterParams",
          "type": "bool"
        }
      ],
      "name": "SetUseCustomAdapterParams",
      "type": "event"
    },
    {
      "inputs": [],
      "name": "NO_EXTRA_GAS",
      "outputs": [
        {
          "internalType": "uint256",
          "name": "",
          "type": "uint256"
        }
      ],
      "stateMutability": "view",
      "type": "function"
    },
    {
      "inputs": [],
      "name": "PT_SEND",
      "outputs": [
        {
          "internalType": "uint16",
          "name": "",
          "type": "uint16"
        }
      ],
      "stateMutability": "view",
      "type": "function"
    },
    {
      "inputs": [],
      "name": "bridgeManager",
      "outputs": [
        {
          "internalType": "address",
          "name": "",
          "type": "address"
        }
      ],
      "stateMutability": "view",
      "type": "function"
    },
    {
      "inputs": [],
      "name": "circulatingSupply",
      "outputs": [
        {
          "internalType": "uint256",
          "name": "",
          "type": "uint256"
        }
      ],
      "stateMutability": "view",
      "type": "function"
    },
    {
      "inputs": [
        {
          "internalType": "uint16",
          "name": "_dstChainId",
          "type": "uint16"
        },
        {
          "internalType": "bytes",
          "name": "_toAddress",
          "type": "bytes"
        },
        {
          "internalType": "uint256",
          "name": "_amount",
          "type": "uint256"
        },
        {
          "internalType": "bool",
          "name": "_useZro",
          "type": "bool"
        },
        {
          "internalType": "bytes",
          "name": "_adapterParams",
          "type": "bytes"
        }
      ],
      "name": "estimateSendFee",
      "outputs": [
        {
          "internalType": "uint256",
          "name": "nativeFee",
          "type": "uint256"
        },
        {
          "internalType": "uint256",
          "name": "zroFee",
          "type": "uint256"
        }
      ],
      "stateMutability": "view",
      "type": "function"
    },
    {
      "inputs": [
        {
          "internalType": "uint16",
          "name": "",
          "type": "uint16"
        },
        {
          "internalType": "bytes",
          "name": "",
          "type": "bytes"
        },
        {
          "internalType": "uint64",
          "name": "",
          "type": "uint64"
        }
      ],
      "name": "failedMessages",
      "outputs": [
        {
          "internalType": "bytes32",
          "name": "",
          "type": "bytes32"
        }
      ],
      "stateMutability": "view",
      "type": "function"
    },
    {
      "inputs": [
        {
          "internalType": "uint16",
          "name": "_srcChainId",
          "type": "uint16"
        },
        {
          "internalType": "bytes",
          "name": "_srcAddress",
          "type": "bytes"
        }
      ],
      "name": "forceResumeReceive",
      "outputs": [],
      "stateMutability": "nonpayable",
      "type": "function"
    },
    {
      "inputs": [
        {
          "internalType": "uint16",
          "name": "_version",
          "type": "uint16"
        },
        {
          "internalType": "uint16",
          "name": "_chainId",
          "type": "uint16"
        },
        {
          "internalType": "address",
          "name": "",
          "type": "address"
        },
        {
          "internalType": "uint256",
          "name": "_configType",
          "type": "uint256"
        }
      ],
      "name": "getConfig",
      "outputs": [
        {
          "internalType": "bytes",
          "name": "",
          "type": "bytes"
        }
      ],
      "stateMutability": "view",
      "type": "function"
    },
    {
      "inputs": [
        {
          "internalType": "uint16",
          "name": "_remoteChainId",
          "type": "uint16"
        }
      ],
      "name": "getTrustedRemoteAddress",
      "outputs": [
        {
          "internalType": "bytes",
          "name": "",
          "type": "bytes"
        }
      ],
      "stateMutability": "view",
      "type": "function"
    },
    {
      "inputs": [
        {
          "internalType": "uint16",
          "name": "_srcChainId",
          "type": "uint16"
        },
        {
          "internalType": "bytes",
          "name": "_srcAddress",
          "type": "bytes"
        }
      ],
      "name": "isTrustedRemote",
      "outputs": [
        {
          "internalType": "bool",
          "name": "",
          "type": "bool"
        }
      ],
      "stateMutability": "view",
      "type": "function"
    },
    {
      "inputs": [],
      "name": "lzEndpoint",
      "outputs": [
        {
          "internalType": "contract ILayerZeroEndpoint",
          "name": "",
          "type": "address"
        }
      ],
      "stateMutability": "view",
      "type": "function"
    },
    {
      "inputs": [
        {
          "internalType": "uint16",
          "name": "_srcChainId",
          "type": "uint16"
        },
        {
          "internalType": "bytes",
          "name": "_srcAddress",
          "type": "bytes"
        },
        {
          "internalType": "uint64",
          "name": "_nonce",
          "type": "uint64"
        },
        {
          "internalType": "bytes",
          "name": "_payload",
          "type": "bytes"
        }
      ],
      "name": "lzReceive",
      "outputs": [],
      "stateMutability": "nonpayable",
      "type": "function"
    },
    {
      "inputs": [
        {
          "internalType": "uint16",
          "name": "",
          "type": "uint16"
        },
        {
          "internalType": "uint16",
          "name": "",
          "type": "uint16"
        }
      ],
      "name": "minDstGasLookup",
      "outputs": [
        {
          "internalType": "uint256",
          "name": "",
          "type": "uint256"
        }
      ],
      "stateMutability": "view",
      "type": "function"
    },
    {
      "inputs": [],
      "name": "multisig",
      "outputs": [
        {
          "internalType": "address",
          "name": "",
          "type": "address"
        }
      ],
      "stateMutability": "view",
      "type": "function"
    },
    {
      "inputs": [
        {
          "internalType": "uint16",
          "name": "_srcChainId",
          "type": "uint16"
        },
        {
          "internalType": "bytes",
          "name": "_srcAddress",
          "type": "bytes"
        },
        {
          "internalType": "uint64",
          "name": "_nonce",
          "type": "uint64"
        },
        {
          "internalType": "bytes",
          "name": "_payload",
          "type": "bytes"
        }
      ],
      "name": "nonblockingLzReceive",
      "outputs": [],
      "stateMutability": "nonpayable",
      "type": "function"
    },
    {
      "inputs": [],
      "name": "owner",
      "outputs": [
        {
          "internalType": "address",
          "name": "",
          "type": "address"
        }
      ],
      "stateMutability": "view",
      "type": "function"
    },
    {
      "inputs": [],
      "name": "precrime",
      "outputs": [
        {
          "internalType": "address",
          "name": "",
          "type": "address"
        }
      ],
      "stateMutability": "view",
      "type": "function"
    },
    {
      "inputs": [],
      "name": "renounceOwnership",
      "outputs": [],
      "stateMutability": "nonpayable",
      "type": "function"
    },
    {
      "inputs": [
        {
          "internalType": "uint16",
          "name": "_srcChainId",
          "type": "uint16"
        },
        {
          "internalType": "bytes",
          "name": "_srcAddress",
          "type": "bytes"
        },
        {
          "internalType": "uint64",
          "name": "_nonce",
          "type": "uint64"
        },
        {
          "internalType": "bytes",
          "name": "_payload",
          "type": "bytes"
        }
      ],
      "name": "retryMessage",
      "outputs": [],
      "stateMutability": "payable",
      "type": "function"
    },
    {
      "inputs": [
        {
          "internalType": "address",
          "name": "_from",
          "type": "address"
        },
        {
          "internalType": "uint16",
          "name": "_dstChainId",
          "type": "uint16"
        },
        {
          "internalType": "bytes",
          "name": "_toAddress",
          "type": "bytes"
        },
        {
          "internalType": "uint256",
          "name": "_amount",
          "type": "uint256"
        },
        {
          "internalType": "address payable",
          "name": "_refundAddress",
          "type": "address"
        },
        {
          "internalType": "address",
          "name": "_zroPaymentAddress",
          "type": "address"
        },
        {
          "internalType": "bytes",
          "name": "_adapterParams",
          "type": "bytes"
        }
      ],
      "name": "sendFrom",
      "outputs": [],
      "stateMutability": "payable",
      "type": "function"
    },
    {
      "inputs": [
        {
          "internalType": "uint16",
          "name": "_version",
          "type": "uint16"
        },
        {
          "internalType": "uint16",
          "name": "_chainId",
          "type": "uint16"
        },
        {
          "internalType": "uint256",
          "name": "_configType",
          "type": "uint256"
        },
        {
          "internalType": "bytes",
          "name": "_config",
          "type": "bytes"
        }
      ],
      "name": "setConfig",
      "outputs": [],
      "stateMutability": "nonpayable",
      "type": "function"
    },
    {
      "inputs": [
        {
          "internalType": "uint16",
          "name": "_dstChainId",
          "type": "uint16"
        },
        {
          "internalType": "uint16",
          "name": "_packetType",
          "type": "uint16"
        },
        {
          "internalType": "uint256",
          "name": "_minGas",
          "type": "uint256"
        }
      ],
      "name": "setMinDstGas",
      "outputs": [],
      "stateMutability": "nonpayable",
      "type": "function"
    },
    {
      "inputs": [
        {
          "internalType": "address",
          "name": "_precrime",
          "type": "address"
        }
      ],
      "name": "setPrecrime",
      "outputs": [],
      "stateMutability": "nonpayable",
      "type": "function"
    },
    {
      "inputs": [
        {
          "internalType": "uint16",
          "name": "_version",
          "type": "uint16"
        }
      ],
      "name": "setReceiveVersion",
      "outputs": [],
      "stateMutability": "nonpayable",
      "type": "function"
    },
    {
      "inputs": [
        {
          "internalType": "uint16",
          "name": "_version",
          "type": "uint16"
        }
      ],
      "name": "setSendVersion",
      "outputs": [],
      "stateMutability": "nonpayable",
      "type": "function"
    },
    {
      "inputs": [
        {
          "internalType": "uint16",
          "name": "_srcChainId",
          "type": "uint16"
        },
        {
          "internalType": "bytes",
          "name": "_path",
          "type": "bytes"
        }
      ],
      "name": "setTrustedRemote",
      "outputs": [],
      "stateMutability": "nonpayable",
      "type": "function"
    },
    {
      "inputs": [
        {
          "internalType": "uint16",
          "name": "_remoteChainId",
          "type": "uint16"
        },
        {
          "internalType": "bytes",
          "name": "_remoteAddress",
          "type": "bytes"
        }
      ],
      "name": "setTrustedRemoteAddress",
      "outputs": [],
      "stateMutability": "nonpayable",
      "type": "function"
    },
    {
      "inputs": [
        {
          "internalType": "bool",
          "name": "_useCustomAdapterParams",
          "type": "bool"
        }
      ],
      "name": "setUseCustomAdapterParams",
      "outputs": [],
      "stateMutability": "nonpayable",
      "type": "function"
    },
    {
      "inputs": [
        {
          "internalType": "bytes4",
          "name": "interfaceId",
          "type": "bytes4"
        }
      ],
      "name": "supportsInterface",
      "outputs": [
        {
          "internalType": "bool",
          "name": "",
          "type": "bool"
        }
      ],
      "stateMutability": "view",
      "type": "function"
    },
    {
      "inputs": [],
      "name": "token",
      "outputs": [
        {
          "internalType": "contract IERC20",
          "name": "",
          "type": "address"
        }
      ],
      "stateMutability": "view",
      "type": "function"
    },
    {
      "inputs": [
        {
          "internalType": "address",
          "name": "newOwner",
          "type": "address"
        }
      ],
      "name": "transferOwnership",
      "outputs": [],
      "stateMutability": "nonpayable",
      "type": "function"
    },
    {
      "inputs": [
        {
          "internalType": "uint16",
          "name": "",
          "type": "uint16"
        }
      ],
      "name": "trustedRemoteLookup",
      "outputs": [
        {
          "internalType": "bytes",
          "name": "",
          "type": "bytes"
        }
      ],
      "stateMutability": "view",
      "type": "function"
    },
    {
      "inputs": [],
      "name": "useCustomAdapterParams",
      "outputs": [
        {
          "internalType": "bool",
          "name": "",
          "type": "bool"
        }
      ],
      "stateMutability": "view",
      "type": "function"
    }
  ],
  "bytecode": "0x60c06040523480156200001157600080fd5b506040516200322538038062003225833981016040819052620000349162000101565b838080620000423362000094565b6001600160a01b0390811660805294851660a052505060058054610100600160a81b0319166101009385169390930292909217909155600680546001600160a01b03191691909216179055506200015e565b600080546001600160a01b038381166001600160a01b0319831681178455604051919092169283917f8be0079c531659141344cd1fd0a4f28419497f9722a3daafe3b4186f6b6457e09190a35050565b80516001600160a01b0381168114620000fc57600080fd5b919050565b600080600080608085870312156200011857600080fd5b6200012385620000e4565b93506200013360208601620000e4565b92506200014360408601620000e4565b91506200015360608601620000e4565b905092959194509250565b60805160a05161304d620001d86000396000818161068801528181610e6a01528181610edf01528181611c0c0152612024015260008181610547015281816106ad01528181610933015281816109bc01528181610a6001528181610bdc01528181611184015281816116040152611d56015261304d6000f3fe6080604052600436106101ed5760003560e01c80638cfd8f5c1161010d578063cbed8b9c116100a0578063eb8d72b71161006f578063eb8d72b7146105fc578063ed629c5c1461061c578063f2fde38b14610636578063f5ecbdbc14610656578063fc0c546a1461067657600080fd5b8063cbed8b9c14610589578063d1deba1f146105a9578063df2a5b3b146105bc578063eab45d9c146105dc57600080fd5b80639f38369a116100dc5780639f38369a146104f5578063a6c3d16514610515578063b353aaa714610535578063baf3292d1461056957600080fd5b80638cfd8f5c1461046a5780638da5cb5b146104a25780639358928b146104c0578063950c8a74146104d557600080fd5b806344770515116101855780635b8c41e6116101545780635b8c41e6146103b957806366ad5c8a14610408578063715018a6146104285780637533d7881461043d57600080fd5b806344770515146103365780634783c35b146103595780634c42899a1461037e57806351905636146103a657600080fd5b806314cc01a0116101c157806314cc01a0146102895780632a205e3d146102c15780633d8b38f6146102f657806342d65a8d1461031657600080fd5b80621d3567146101f257806301ffc9a71461021457806307e0db171461024957806310ddb13714610269575b600080fd5b3480156101fe57600080fd5b5061021261020d366004612583565b6106aa565b005b34801561022057600080fd5b5061023461022f366004612618565b6108db565b60405190151581526020015b60405180910390f35b34801561025557600080fd5b50610212610264366004612642565b610912565b34801561027557600080fd5b50610212610284366004612642565b61099b565b34801561029557600080fd5b506006546102a9906001600160a01b031681565b6040516001600160a01b039091168152602001610240565b3480156102cd57600080fd5b506102e16102dc36600461266d565b6109f3565b60408051928352602083019190915201610240565b34801561030257600080fd5b5061023461031136600461270d565b610af0565b34801561032257600080fd5b5061021261033136600461270d565b610bbd565b34801561034257600080fd5b5061034b600081565b604051908152602001610240565b34801561036557600080fd5b506005546102a99061010090046001600160a01b031681565b34801561038a57600080fd5b50610393600081565b60405161ffff9091168152602001610240565b6102126103b4366004612776565b610c43565b3480156103c557600080fd5b5061034b6103d43660046128ac565b6004602090815260009384526040808520845180860184018051928152908401958401959095209452929052825290205481565b34801561041457600080fd5b50610212610423366004612583565b610cc8565b34801561043457600080fd5b50610212610da4565b34801561044957600080fd5b5061045d610458366004612642565b610db8565b60405161024091906129a6565b34801561047657600080fd5b5061034b6104853660046129b9565b600260209081526000928352604080842090915290825290205481565b3480156104ae57600080fd5b506000546001600160a01b03166102a9565b3480156104cc57600080fd5b5061034b610e52565b3480156104e157600080fd5b506003546102a9906001600160a01b031681565b34801561050157600080fd5b5061045d610510366004612642565b610f65565b34801561052157600080fd5b5061021261053036600461270d565b611075565b34801561054157600080fd5b506102a97f000000000000000000000000000000000000000000000000000000000000000081565b34801561057557600080fd5b506102126105843660046129f2565b611108565b34801561059557600080fd5b506102126105a4366004612a0f565b611165565b6102126105b7366004612583565b6111ef565b3480156105c857600080fd5b506102126105d7366004612a81565b611405565b3480156105e857600080fd5b506102126105f7366004612ac2565b6114b7565b34801561060857600080fd5b5061021261061736600461270d565b611500565b34801561062857600080fd5b506005546102349060ff1681565b34801561064257600080fd5b506102126106513660046129f2565b61155a565b34801561066257600080fd5b5061045d610671366004612adf565b6115d3565b34801561068257600080fd5b506102a97f000000000000000000000000000000000000000000000000000000000000000081565b337f00000000000000000000000000000000000000000000000000000000000000006001600160a01b0316146107275760405162461bcd60e51b815260206004820152601e60248201527f4c7a4170703a20696e76616c696420656e64706f696e742063616c6c6572000060448201526064015b60405180910390fd5b61ffff86166000908152600160205260408120805461074590612b30565b80601f016020809104026020016040519081016040528092919081815260200182805461077190612b30565b80156107be5780601f10610793576101008083540402835291602001916107be565b820191906000526020600020905b8154815290600101906020018083116107a157829003601f168201915b505050505090508051868690501480156107d9575060008151115b80156108015750805160208201206040516107f79088908890612b6b565b6040518091039020145b61085c5760405162461bcd60e51b815260206004820152602660248201527f4c7a4170703a20696e76616c696420736f757263652073656e64696e6720636f6044820152651b9d1c9858dd60d21b606482015260840161071e565b6108d28787878080601f01602080910402602001604051908101604052809392919081815260200183838082843760009201919091525050604080516020601f8a018190048102820181019092528881528a93509150889088908190840183828082843760009201919091525061168492505050565b50505050505050565b60006001600160e01b031982166301d1d13560e71b148061090c57506301ffc9a760e01b6001600160e01b03198316145b92915050565b61091a61178e565b6040516307e0db1760e01b815261ffff821660048201527f00000000000000000000000000000000000000000000000000000000000000006001600160a01b0316906307e0db17906024015b600060405180830381600087803b15801561098057600080fd5b505af1158015610994573d6000803e3d6000fd5b5050505050565b6109a361178e565b6040516310ddb13760e01b815261ffff821660048201527f00000000000000000000000000000000000000000000000000000000000000006001600160a01b0316906310ddb13790602401610966565b6040516001600160601b03193360601b16602082015260009081908190819060340160408051601f1981840301815290829052610a3992918c908c908c90602001612ba4565b60408051601f198184030181529082905263040a7bb160e41b825291506001600160a01b037f000000000000000000000000000000000000000000000000000000000000000016906340a7bb1090610a9f908d90309086908c908c908c90600401612be7565b6040805180830381865afa158015610abb573d6000803e3d6000fd5b505050506040513d601f19601f82011682018060405250810190610adf9190612c3d565b925092505097509795505050505050565b61ffff831660009081526001602052604081208054829190610b1190612b30565b80601f0160208091040260200160405190810160405280929190818152602001828054610b3d90612b30565b8015610b8a5780601f10610b5f57610100808354040283529160200191610b8a565b820191906000526020600020905b815481529060010190602001808311610b6d57829003601f168201915b505050505090508383604051610ba1929190612b6b565b60405180910390208180519060200120149150505b9392505050565b610bc561178e565b6040516342d65a8d60e01b81526001600160a01b037f000000000000000000000000000000000000000000000000000000000000000016906342d65a8d90610c1590869086908690600401612c61565b600060405180830381600087803b158015610c2f57600080fd5b505af11580156108d2573d6000803e3d6000fd5b610cbd898989898080601f01602080910402602001604051908101604052809392919081815260200183838082843760009201919091525050604080516020601f8a018190048102820181019092528881528c93508b92508a918a908a90819084018382808284376000920191909152506117e892505050565b505050505050505050565b333014610d265760405162461bcd60e51b815260206004820152602660248201527f4e6f6e626c6f636b696e674c7a4170703a2063616c6c6572206d7573742062656044820152650204c7a4170760d41b606482015260840161071e565b610d9c8686868080601f01602080910402602001604051908101604052809392919081815260200183838082843760009201919091525050604080516020601f8901819004810282018101909252878152899350915087908790819084018382808284376000920191909152506118ca92505050565b505050505050565b610dac61178e565b610db66000611931565b565b60016020526000908152604090208054610dd190612b30565b80601f0160208091040260200160405190810160405280929190818152602001828054610dfd90612b30565b8015610e4a5780601f10610e1f57610100808354040283529160200191610e4a565b820191906000526020600020905b815481529060010190602001808311610e2d57829003601f168201915b505050505081565b6040516370a0823160e01b81523060048201526000907f00000000000000000000000000000000000000000000000000000000000000006001600160a01b0316906370a0823190602401602060405180830381865afa158015610eb9573d6000803e3d6000fd5b505050506040513d601f19601f82011682018060405250810190610edd9190612c7f565b7f00000000000000000000000000000000000000000000000000000000000000006001600160a01b03166318160ddd6040518163ffffffff1660e01b8152600401602060405180830381865afa158015610f3b573d6000803e3d6000fd5b505050506040513d601f19601f82011682018060405250810190610f5f9190612c7f565b03905090565b61ffff8116600090815260016020526040812080546060929190610f8890612b30565b80601f0160208091040260200160405190810160405280929190818152602001828054610fb490612b30565b80156110015780601f10610fd657610100808354040283529160200191611001565b820191906000526020600020905b815481529060010190602001808311610fe457829003601f168201915b5050505050905080516000141561105a5760405162461bcd60e51b815260206004820152601d60248201527f4c7a4170703a206e6f20747275737465642070617468207265636f7264000000604482015260640161071e565b610bb660006014835161106d9190612cae565b839190611981565b61107d61178e565b81813060405160200161109293929190612cc5565b60408051601f1981840301815291815261ffff851660009081526001602090815291902082516110c793919290910190612402565b507f8c0400cfe2d1199b1a725c78960bcc2a344d869b80590d0f2bd005db15a572ce8383836040516110fb93929190612c61565b60405180910390a1505050565b61111061178e565b600380546001600160a01b0319166001600160a01b0383169081179091556040519081527f5db758e995a17ec1ad84bdef7e8c3293a0bd6179bcce400dff5d4c3d87db726b906020015b60405180910390a150565b61116d61178e565b6040516332fb62e760e21b81526001600160a01b037f0000000000000000000000000000000000000000000000000000000000000000169063cbed8b9c906111c19088908890889088908890600401612ce6565b600060405180830381600087803b1580156111db57600080fd5b505af1158015610cbd573d6000803e3d6000fd5b61ffff861660009081526004602052604080822090516112129088908890612b6b565b90815260408051602092819003830190206001600160401b038716600090815292529020549050806112925760405162461bcd60e51b815260206004820152602360248201527f4e6f6e626c6f636b696e674c7a4170703a206e6f2073746f726564206d65737360448201526261676560e81b606482015260840161071e565b8083836040516112a3929190612b6b565b6040518091039020146113025760405162461bcd60e51b815260206004820152602160248201527f4e6f6e626c6f636b696e674c7a4170703a20696e76616c6964207061796c6f616044820152601960fa1b606482015260840161071e565b61ffff871660009081526004602052604080822090516113259089908990612b6b565b90815260408051602092819003830181206001600160401b038916600090815290845282902093909355601f880182900482028301820190528682526113bd918991899089908190840183828082843760009201919091525050604080516020601f8a018190048102820181019092528881528a9350915088908890819084018382808284376000920191909152506118ca92505050565b7fc264d91f3adc5588250e1551f547752ca0cfa8f6b530d243b9f9f4cab10ea8e587878787856040516113f4959493929190612d14565b60405180910390a150505050505050565b61140d61178e565b600081116114555760405162461bcd60e51b81526020600482015260156024820152744c7a4170703a20696e76616c6964206d696e47617360581b604482015260640161071e565b61ffff83811660008181526002602090815260408083209487168084529482529182902085905581519283528201929092529081018290527f9d5c7c0b934da8fefa9c7760c98383778a12dfbfc0c3b3106518f43fb9508ac0906060016110fb565b6114bf61178e565b6005805460ff19168215159081179091556040519081527f1584ad594a70cbe1e6515592e1272a987d922b097ead875069cebe8b40c004a49060200161115a565b61150861178e565b61ffff83166000908152600160205260409020611526908383612486565b507ffa41487ad5d6728f0b19276fa1eddc16558578f5109fc39d2dc33c3230470dab8383836040516110fb93929190612c61565b61156261178e565b6001600160a01b0381166115c75760405162461bcd60e51b815260206004820152602660248201527f4f776e61626c653a206e6577206f776e657220697320746865207a65726f206160448201526564647265737360d01b606482015260840161071e565b6115d081611931565b50565b604051633d7b2f6f60e21b815261ffff808616600483015284166024820152306044820152606481018290526060907f00000000000000000000000000000000000000000000000000000000000000006001600160a01b03169063f5ecbdbc90608401600060405180830381865afa158015611653573d6000803e3d6000fd5b505050506040513d6000823e601f3d908101601f1916820160405261167b9190810190612d94565b95945050505050565b6000806116e75a60966366ad5c8a60e01b898989896040516024016116ac9493929190612dc8565b60408051601f198184030181529190526020810180516001600160e01b03166001600160e01b03199093169290921790915230929190611a8e565b9150915081610d9c578280519060200120600460008861ffff1661ffff168152602001908152602001600020866040516117219190612e06565b9081526040805191829003602090810183206001600160401b0389166000908152915220919091557fe183f33de2837795525b4792ca4cd60535bd77c53b7e7030060bfcf5734d6b0c9061177e9088908890889088908790612e22565b60405180910390a1505050505050565b6000546001600160a01b03163314610db65760405162461bcd60e51b815260206004820181905260248201527f4f776e61626c653a2063616c6c6572206973206e6f7420746865206f776e6572604482015260640161071e565b6117f6866000836000611b18565b61180287878787611b98565b6040516001600160601b0319606089901b166020820152600090819060340160408051601f1981840301815290829052611843929189908990602001612e80565b6040516020818303038152906040529050611862878286868634611c37565b856040516118709190612e06565b6040518091039020886001600160a01b03168861ffff167f39a4c66499bcf4b56d79f0dde8ed7a9d4925a0df55825206b2b8531e202be0d0886040516118b891815260200190565b60405180910390a45050505050505050565b602081015161ffff81166118e9576118e485858585611dd2565b610994565b60405162461bcd60e51b815260206004820152601c60248201527f4f4654436f72653a20756e6b6e6f776e207061636b6574207479706500000000604482015260640161071e565b600080546001600160a01b038381166001600160a01b0319831681178455604051919092169283917f8be0079c531659141344cd1fd0a4f28419497f9722a3daafe3b4186f6b6457e09190a35050565b60608161198f81601f612ec1565b10156119ce5760405162461bcd60e51b815260206004820152600e60248201526d736c6963655f6f766572666c6f7760901b604482015260640161071e565b6119d88284612ec1565b84511015611a1c5760405162461bcd60e51b8152602060048201526011602482015270736c6963655f6f75744f66426f756e647360781b604482015260640161071e565b606082158015611a3b5760405191506000825260208201604052611a85565b6040519150601f8416801560200281840101858101878315602002848b0101015b81831015611a74578051835260209283019201611a5c565b5050858452601f01601f1916604052505b50949350505050565b6000606060008060008661ffff166001600160401b03811115611ab357611ab361283f565b6040519080825280601f01601f191660200182016040528015611add576020820181803683370190505b50905060008087516020890160008d8df191503d925086831115611aff578692505b828152826000602083013e909890975095505050505050565b60055460ff1615611b3457611b2f84848484611e5f565b611b92565b815115611b925760405162461bcd60e51b815260206004820152602660248201527f4f4654436f72653a205f61646170746572506172616d73206d7573742062652060448201526532b6b83a3c9760d11b606482015260840161071e565b50505050565b6001600160a01b0384163314611bfb5760405162461bcd60e51b815260206004820152602260248201527f50726f78794f46543a206f776e6572206973206e6f742073656e642063616c6c60448201526132b960f11b606482015260840161071e565b600654611b92906001600160a01b037f000000000000000000000000000000000000000000000000000000000000000081169187911684611f3e565b61ffff861660009081526001602052604081208054611c5590612b30565b80601f0160208091040260200160405190810160405280929190818152602001828054611c8190612b30565b8015611cce5780601f10611ca357610100808354040283529160200191611cce565b820191906000526020600020905b815481529060010190602001808311611cb157829003601f168201915b50505050509050805160001415611d405760405162461bcd60e51b815260206004820152603060248201527f4c7a4170703a2064657374696e6174696f6e20636861696e206973206e6f742060448201526f61207472757374656420736f7572636560801b606482015260840161071e565b60405162c5803160e81b81526001600160a01b037f0000000000000000000000000000000000000000000000000000000000000000169063c5803100908490611d97908b9086908c908c908c908c90600401612ed9565b6000604051808303818588803b158015611db057600080fd5b505af1158015611dc4573d6000803e3d6000fd5b505050505050505050505050565b600080600083806020019051810190611deb9190612f33565b9195509350915060009050611e008382611f98565b9050611e0d888284611ffd565b806001600160a01b03168861ffff167f776434b505c7beb3db155c58df6c88985bf7c31730767e43ec773005059fed7a8685604051611e4d929190612fb1565b60405180910390a35050505050505050565b6000611e6a8361214e565b61ffff808716600090815260026020908152604080832093891683529290529081205491925090611e9c908490612ec1565b905060008111611eee5760405162461bcd60e51b815260206004820152601a60248201527f4c7a4170703a206d696e4761734c696d6974206e6f7420736574000000000000604482015260640161071e565b80821015610d9c5760405162461bcd60e51b815260206004820152601b60248201527f4c7a4170703a20676173206c696d697420697320746f6f206c6f770000000000604482015260640161071e565b604080516001600160a01b0385811660248301528416604482015260648082018490528251808303909101815260849091019091526020810180516001600160e01b03166323b872dd60e01b179052611b929085906121aa565b6000611fa5826014612ec1565b83511015611fed5760405162461bcd60e51b8152602060048201526015602482015274746f416464726573735f6f75744f66426f756e647360581b604482015260640161071e565b500160200151600160601b900490565b6005546006546001600160a01b0361010090920482169163c64274749116600063f633be1e7f000000000000000000000000000000000000000000000000000000000000000086888181612052600143612cae565b406040516020016120839392919092835260609190911b6001600160601b0319166020830152603482015260540190565b60408051601f198184030181529082905280516020909101206001600160a01b039485166024830152604482019390935292166064830152608482015260a40160408051808303601f1901815291815260208201805160e094851b6001600160e01b03909116179052519185901b6001600160e01b031916825261210b939291600401612fd3565b6020604051808303816000875af115801561212a573d6000803e3d6000fd5b505050506040513d601f19601f82011682018060405250810190611b929190612c7f565b60006022825110156121a25760405162461bcd60e51b815260206004820152601c60248201527f4c7a4170703a20696e76616c69642061646170746572506172616d7300000000604482015260640161071e565b506022015190565b60006121ff826040518060400160405280602081526020017f5361666545524332303a206c6f772d6c6576656c2063616c6c206661696c6564815250856001600160a01b03166122819092919063ffffffff16565b80519091501561227c578080602001905181019061221d9190612ffa565b61227c5760405162461bcd60e51b815260206004820152602a60248201527f5361666545524332303a204552433230206f7065726174696f6e20646964206e6044820152691bdd081cdd58d8d9595960b21b606482015260840161071e565b505050565b60606122908484600085612298565b949350505050565b6060824710156122f95760405162461bcd60e51b815260206004820152602660248201527f416464726573733a20696e73756666696369656e742062616c616e636520666f6044820152651c8818d85b1b60d21b606482015260840161071e565b6001600160a01b0385163b6123505760405162461bcd60e51b815260206004820152601d60248201527f416464726573733a2063616c6c20746f206e6f6e2d636f6e7472616374000000604482015260640161071e565b600080866001600160a01b0316858760405161236c9190612e06565b60006040518083038185875af1925050503d80600081146123a9576040519150601f19603f3d011682016040523d82523d6000602084013e6123ae565b606091505b50915091506123be8282866123c9565b979650505050505050565b606083156123d8575081610bb6565b8251156123e85782518084602001fd5b8160405162461bcd60e51b815260040161071e91906129a6565b82805461240e90612b30565b90600052602060002090601f0160209004810192826124305760008555612476565b82601f1061244957805160ff1916838001178555612476565b82800160010185558215612476579182015b8281111561247657825182559160200191906001019061245b565b506124829291506124fa565b5090565b82805461249290612b30565b90600052602060002090601f0160209004810192826124b45760008555612476565b82601f106124cd5782800160ff19823516178555612476565b82800160010185558215612476579182015b828111156124765782358255916020019190600101906124df565b5b8082111561248257600081556001016124fb565b61ffff811681146115d057600080fd5b60008083601f84011261253157600080fd5b5081356001600160401b0381111561254857600080fd5b60208301915083602082850101111561256057600080fd5b9250929050565b80356001600160401b038116811461257e57600080fd5b919050565b6000806000806000806080878903121561259c57600080fd5b86356125a78161250f565b955060208701356001600160401b03808211156125c357600080fd5b6125cf8a838b0161251f565b90975095508591506125e360408a01612567565b945060608901359150808211156125f957600080fd5b5061260689828a0161251f565b979a9699509497509295939492505050565b60006020828403121561262a57600080fd5b81356001600160e01b031981168114610bb657600080fd5b60006020828403121561265457600080fd5b8135610bb68161250f565b80151581146115d057600080fd5b600080600080600080600060a0888a03121561268857600080fd5b87356126938161250f565b965060208801356001600160401b03808211156126af57600080fd5b6126bb8b838c0161251f565b909850965060408a0135955060608a013591506126d78261265f565b909350608089013590808211156126ed57600080fd5b506126fa8a828b0161251f565b989b979a50959850939692959293505050565b60008060006040848603121561272257600080fd5b833561272d8161250f565b925060208401356001600160401b0381111561274857600080fd5b6127548682870161251f565b9497909650939450505050565b6001600160a01b03811681146115d057600080fd5b600080600080600080600080600060e08a8c03121561279457600080fd5b893561279f81612761565b985060208a01356127af8161250f565b975060408a01356001600160401b03808211156127cb57600080fd5b6127d78d838e0161251f565b909950975060608c0135965060808c013591506127f382612761565b90945060a08b01359061280582612761565b90935060c08b0135908082111561281b57600080fd5b506128288c828d0161251f565b915080935050809150509295985092959850929598565b634e487b7160e01b600052604160045260246000fd5b604051601f8201601f191681016001600160401b038111828210171561287d5761287d61283f565b604052919050565b60006001600160401b0382111561289e5761289e61283f565b50601f01601f191660200190565b6000806000606084860312156128c157600080fd5b83356128cc8161250f565b925060208401356001600160401b038111156128e757600080fd5b8401601f810186136128f857600080fd5b803561290b61290682612885565b612855565b81815287602083850101111561292057600080fd5b8160208401602083013760006020838301015280945050505061294560408501612567565b90509250925092565b60005b83811015612969578181015183820152602001612951565b83811115611b925750506000910152565b6000815180845261299281602086016020860161294e565b601f01601f19169290920160200192915050565b602081526000610bb6602083018461297a565b600080604083850312156129cc57600080fd5b82356129d78161250f565b915060208301356129e78161250f565b809150509250929050565b600060208284031215612a0457600080fd5b8135610bb681612761565b600080600080600060808688031215612a2757600080fd5b8535612a328161250f565b94506020860135612a428161250f565b93506040860135925060608601356001600160401b03811115612a6457600080fd5b612a708882890161251f565b969995985093965092949392505050565b600080600060608486031215612a9657600080fd5b8335612aa18161250f565b92506020840135612ab18161250f565b929592945050506040919091013590565b600060208284031215612ad457600080fd5b8135610bb68161265f565b60008060008060808587031215612af557600080fd5b8435612b008161250f565b93506020850135612b108161250f565b92506040850135612b2081612761565b9396929550929360600135925050565b600181811c90821680612b4457607f821691505b60208210811415612b6557634e487b7160e01b600052602260045260246000fd5b50919050565b8183823760009101908152919050565b81835281816020850137506000828201602090810191909152601f909101601f19169091010190565b61ffff86168152608060208201526000612bc1608083018761297a565b8281036040840152612bd4818688612b7b565b9150508260608301529695505050505050565b61ffff871681526001600160a01b038616602082015260a060408201819052600090612c159083018761297a565b85151560608401528281036080840152612c30818587612b7b565b9998505050505050505050565b60008060408385031215612c5057600080fd5b505080516020909101519092909150565b61ffff8416815260406020820152600061167b604083018486612b7b565b600060208284031215612c9157600080fd5b5051919050565b634e487b7160e01b600052601160045260246000fd5b600082821015612cc057612cc0612c98565b500390565b8284823760609190911b6001600160601b0319169101908152601401919050565b600061ffff8088168352808716602084015250846040830152608060608301526123be608083018486612b7b565b61ffff86168152608060208201526000612d32608083018688612b7b565b6001600160401b0394909416604083015250606001529392505050565b600082601f830112612d6057600080fd5b8151612d6e61290682612885565b818152846020838601011115612d8357600080fd5b61229082602083016020870161294e565b600060208284031215612da657600080fd5b81516001600160401b03811115612dbc57600080fd5b61229084828501612d4f565b61ffff85168152608060208201526000612de5608083018661297a565b6001600160401b038516604084015282810360608401526123be818561297a565b60008251612e1881846020870161294e565b9190910192915050565b61ffff8616815260a060208201526000612e3f60a083018761297a565b6001600160401b03861660408401528281036060840152612e60818661297a565b90508281036080840152612e74818561297a565b98975050505050505050565b61ffff85168152608060208201526000612e9d608083018661297a565b8281036040840152612eaf818661297a565b91505082606083015295945050505050565b60008219821115612ed457612ed4612c98565b500190565b61ffff8716815260c060208201526000612ef660c083018861297a565b8281036040840152612f08818861297a565b6001600160a01b0387811660608601528616608085015283810360a08501529050612c30818561297a565b60008060008060808587031215612f4957600080fd5b8451612f548161250f565b60208601519094506001600160401b0380821115612f7157600080fd5b612f7d88838901612d4f565b94506040870151915080821115612f9357600080fd5b50612fa087828801612d4f565b606096909601519497939650505050565b604081526000612fc4604083018561297a565b90508260208301529392505050565b60018060a01b038416815282602082015260606040820152600061167b606083018461297a565b60006020828403121561300c57600080fd5b8151610bb68161265f56fea26469706673582212208ca3a8d7a9bc2f99dc22bd2fc6e7791b4c9300a2a41509625c85547d58a0e99664736f6c634300080c0033",
  "linkReferences": {},
  "deployedLinkReferences": {}
}